:020000040001F9
:10800000F0300020F58001000F8101001181010096
:108010000000000000000000000000000000000060
:1080200000000000000000000000000013810100BB
:108030000000000000000000158101001781010010
:108040001981010019810100598401001981010081
:1080500019810100000000006D82010019810100FA
:1080600019810100198101001981010019810100A4
:108070001981010019810100198101001981010094
:1080800019810100B98301001981010019810100E2
:10809000D983010019810100E183010019810100E8
:1080A000198101001981010000000000000000009A
:1080B00000000000000000000000000000000000C0
:1080C0000348854600F0A2F80048004771B6010059
:1080D000F0300020401E00BF00BF00BF00BF00BF47
:1080E00000BF00BF00BF00BF00BF00BF00BFF1D195
:1080F000704700000321094802680A4302600848EB
:1081000002680A4302600748804707480047FEE7C5
:10811000FEE7FEE7FEE7FEE7FEE70000240500407D
:108120005405004005840100C180010030B50B46B4
:10813000014600202022012409E00D46D5409D4241
:1081400005D31D469540491B2546954040191546C7
:10815000521E002DF1DC30BD70B5002425460028EC
:1081600001DA01244042002901DA01254942FFF7E2
:10817000DDFFAC4200D04042002C00D0494270BD2F
:1081800010B5431A934209D28318881803E0401EA1
:1081900001785B1E1970521EF9D210BD03460B43C5
:1081A0009B0703D009E008C9121F08C0042AFAD2AD
:1081B00003E00B78491C0370401C521EF9D210BD1D
:1081C000D2B201E00270401C491EFBD2704700226F
:1081D000F6E710B513460A4604461946FFF7F0FFC6
:1081E000204610BD421C0178401C0029FBD1801A9A
:1081F000704730B504460020034600E05B1C934204
:1082000003D2E05CCD5C401BF8D030BD064C0125AC
:10821000064E05E02046E36807C82B439847103414
:10822000B442F7D3FFF750FF08CC010028CC01007F
:1082300030B58C180278401C13071B0F01D103784E
:10824000401C120906D10278401C03E00578401C4E
:108250000D70491C5B1EF9D101E00B70491C521EC8
:10826000FBD1A142E6D3002030BD0000F8B50025C7
:10827000FF24013401262F460095204603F022FCFE
:10828000002808D034484068304204D033480021E8
:10829000201835430160241D76007F1CA4B2042FF2
:1082A000EBD3FF207D3003F00DFC002807D02C48D5
:1082B00000210160400705432A48006900902A4ECA
:1082C000280713D001270024384628420AD027481F
:1082D000A200111808690969C004C00E8903B258C8
:1082E000890F90477F00641C042CEDD3002D30DAF9
:1082F00000241D4E0021301940304156491C25D024
:108300000778BD06AD0E284601F0F8FD800036580E
:10831000002E1BD0BF090121A940154AA8008018D2
:108320000068009A8003800F114202D0022802D018
:108330000CE003280AD1032F05D102280AD002211C
:10834000284603F0AFFB39462846B047641C042C8E
:10835000CFD3F8BD0321F3E7006300400060004085
:108360007C6100400005005094270020006500401B
:10837000000700508307FF22DB0E9A408907090E91
:10838000994000280BDA0007000F083883080848D6
:108390009B001B18D86990430843D8617047830835
:1083A00004489B001B1818689043084318607047E6
:1083B00000ED00E000E400E010B506490020086090
:1083C00048608860C860034940390860486004F02C
:1083D0001DFA10BD4011014010B504F0ADF910BDFB
:1083E00010B507484068002807D08047002803D010
:1083F0000022114600F08EFA10BD02F04FFF10BDB2
:108400004C21002010B502F097FF002805D00E493E
:108410000C484860C8130D4988610D48018CC9B2E9
:1084200001290ED1818C09070BD1018D0906090F95
:10843000042906D1808D0006000F02D105490120D4
:10844000886010BDDFFF07C000050040006C0040E1
:10845000C00F00F000060040F0B53C4D012185B092
:108460004902284603F043FB01270026384C002828
:1084700023D0FF212531284603F034FB00281CD0EF
:10848000FF21253128466E508122324992008A60B0
:10849000617D002900D14760022269460A7003F01D
:1084A0001BFB0390E07C69460872E0680190E6746B
:1084B00062686846216890471DE00421284603F061
:1084C00016FB002817D0FF210931284603F00AFBCC
:1084D000002810D003F022FEE07C217D88420AD1E2
:1084E000607D002800D16F6081211A488900816079
:1084F000207D03F029FEFF211D31284603F0F2FA0A
:1085000000280DD0A07C218A884202D904F00AFA02
:1085100006E0FF211D316E50002801D004F018FA4A
:10852000FF214531284603F0DDFA00280CD0FF205A
:1085300045302E50607D002800D02F60E07C002860
:1085400002D0207D03F000FE05B0F0BD0020004009
:10855000DC2700200023004030B47446641E2578D8
:10856000641CAB4200D21D46635D5B00E31830BC67
:10857000184702E008C8121F08C1002AFAD1704744
:108580007047002001E001C1121F002AFBD1704793
:10859000F7B584B00025168807461580406B144651
:1085A000002813D003780598032E51D302210170BF
:1085B00021881122491C89B2218042542188491CFA
:1085C00089B2218043542088401C2080386B0028C9
:1085D0001DD005462088059902461232B24237D88E
:1085E00011220A5420881022401C80B220800A5494
:1085F0002088401C20800F202A5C2388401ECA54FB
:10860000228840B2521C22800028F5DA0025384624
:1086100020300290807B002806D033462246059900
:1086200002F0D6FE050014D10298407B002806D047
:1086300032462146059800F08BFE050009D1B87836
:10864000002823D0059886462088001DB04202D914
:108650000C2007B0F0BD684679DF0028F9D12188E9
:1086600003207246505420881921401C80B220807B
:10867000115420887146401C80B220804118684601
:10868000008804F075F9218840182080F8780028C7
:1086900017D0218803230A46FB56C91C0598B1420E
:1086A000D6D80221815421880122491C89B2218017
:1086B00042542188491C89B2218043542088401C9F
:1086C00020807868002817D021880023C3560A46E6
:1086D000C91C0598B142BBD80221815421880A22C5
:1086E000491C89B2218042542188491C89B22180C9
:1086F00043542088401C2080388900280AD00094E8
:1087000038460196062202210830059B04F0AFF995
:1087100005009ED1388A00280AD000943846019678
:10872000072203211030059B04F0A1F9050090D128
:10873000388B00280AD0009438460196152214215F
:108740001830059B04F093F9050082D1386A00289F
:1087500006D033462246059901F078FD0500D8D1B0
:10876000786A002806D033462246059902F0F4FFC5
:108770000500CED10298007B002807D03346224660
:108780003846059903F063FD0500C2D1387800280A
:1087900007D0334622463846059903F011F8050004
:1087A000B7D1284655E7002210B51146104601F012
:1087B00087F9002801D007281BD10022114601208B
:1087C00001F07EF9002801D0072812D105220221EC
:1087D000012001F075F9002801D0072809D10622EF
:1087E0000221002001F06CF9002801D0072800D1F7
:1087F000002010BD10B5A6B0382101A8FFF7E7FC96
:10880000022168460171012484710621C17103218E
:1088100081821248069038210FA8FFF7D8FC10A8D3
:1088200084810E482421223814901DA8FFF7CFFC24
:1088300020A80470FF202D3021900020229000906D
:10884000074B1DAA0FA901A800F086FA002803D043
:108850000022114600F05EF826B010BD282000204E
:10886000FFBA010004484268012109050B46934301
:1088700083600A40C26070470005005070B5002454
:10888000064D06E06968E000085C012103F01EF86F
:10889000641C28788442F5D3002070BD1821002084
:1088A000F8B515460C460646052A01D20720F8BD44
:1088B00003F0DEF8002803D103F0B0F80028F6D169
:1088C000104900204E600C70C8608D6008610E4D2C
:1088D0000DE0E00069688019009181786A46517066
:1088E00000780A4A694603F041F80028DFD12046A3
:1088F000641EE4B20028ECD1054A0021024800F0D1
:1089000041F8F8BD1821002000CC01003DB0010065
:1089100019A40100BFF34F8F03490248C860BFF399
:108920004F8FFEE70400FA0500ED00E0014B1B68E5
:10893000184700006C26002038B50C46A2680C23AE
:108940005A43064B09789D58054A126A009202461E
:10895000204608302369A84738BD0000C028002001
:10896000F420002010B5064914230A785A43511800
:10897000091DFFF7E1FF042003F056FD10BD0000C4
:10898000F4270020094B9B68002B07D0002A07D052
:10899000002805D00068037C002B03D00820704716
:1089A0000720704741744261002070472C2100204D
:1089B000FFB59007002581B014460E46002832D13D
:1089C0001B4F002C31D003F087FB04987861032003
:1089D00038702246BC6018340020334618214B43BF
:1089E000C10089180D704D708E704C601C19401CB0
:1089F0000328F5DBFD607D7001240E48BD70240561
:108A0000046003211420FFF7B5FC0B4804600B4CF5
:108A10000198A06003211120FFF7ACFC6068386169
:108A2000002005B0F0BD0720FBE7BD60FBE70000BC
:108A30002C21002080E200E000E100E00015014070
:108A4000FEB50D461B4917468968044600292AD001
:108A5000002C28D0052D01D20720FEBD606900281A
:108A600021D0607C012820D0002603F0C3FFC00085
:108A70001049019089684018694603F0E5FF002815
:108A800015D0012101700C49446049680830E2C0EA
:108A9000084901988968411868460078487003F0D1
:108AA0008DFE0020FEBD0820FEBD2E46DDE7042021
:108AB000FEBD00002C21002000150140F8B5134D2B
:108AC0000446A96800291CD0002C1AD0606900282F
:108AD00017D00026267403F08DFFC700A8686946EA
:108AE000381803F0B1FF00280DD002210170446056
:108AF000A868391868460078487003F05FFE304671
:108B0000F8BD0820F8BD0420F8BD00002C2100208D
:108B100010B5184C0121002209042068FFF790FFCE
:108B2000002803D000221146FFF7F4FE01210022A5
:108B3000C9036068FFF784FF002803D000221146B4
:108B4000FFF7E8FE00220C49A068FFF779FF002834
:108B500003D000221146FFF7DDFE05210022C903E4
:108B6000E068FFF76DFF002803D000221146FFF7F1
:108B7000D1FE10BD5CCB010066260000F0B50546B5
:108B8000007D002493B00E4600280DD00120014640
:108B90001031684603940173717B4173817BF92026
:108BA0000140891C684681731C2104A8FFF70FFB54
:108BB0006946087C02210843694608742A7DEF2132
:108BC000002A02D01022104300E008406A461074C8
:108BD000059407940894287D002800D003A80990E4
:108BE00001270A94104697712E4A82800094B27B26
:108BF0000270F27B42708078F9221040801CE722DC
:108C000010404108490068468170317B017214218F
:108C10000BA8FFF7DCFA01A80B9068460C9087863A
:108C2000C486078702A80F90A888AB1D0BAA04A9C9
:108C3000A2DF002833D1B06800282ED068468771A3
:108C4000194981800094317C0170002001466846FA
:108C500041708078F9210840801CE72108404108D4
:108C600049006846817011A8B16800F07DFD064694
:108C700014210BA8FFF7ABFA01A80B9068460C90E3
:108C80008686C486068711A80F902A46E8880E3289
:108C90000BA9A3DF002802D100E0EC81002013B073
:108CA000F0BD0000192A00000829000010B50C4989
:108CB0000C4803F0BFFAC1B20948843800F048FA02
:108CC00000280BD0082809D00749884206D0074958
:108CD000884203D000221146FFF71CFE10BD0000A1
:108CE0007424002010200020043000000134000013
:108CF000F0B50C4693B01F216A4611800726002765
:108D00009180002809D0C17849070DD502A9FFF745
:108D10003FFC002809D102AD01E000251780002C9E
:108D20000ED0E078002802D0304613B0F0BD01AA82
:108D30000AA92046FFF72CFC0028F6D10AAA02E077
:108D400068460022878068468088C3B268460088EB
:108D5000C1B2284672DFE8E770B50D4604991646A1
:108D6000040042D0002E40D0424800224271C3602D
:108D70000161242231464048FFF702FA00F0D0F8A2
:108D80003D49343108461038016020318160382176
:108D90005C38FFF71CFA3848217838380170A17820
:108DA0008170E178C17061784170626921694261C6
:108DB0000161E268A168C26081600146E369A2695D
:108DC000CB618A61616A002919D00146AC31024643
:108DD000B83241628A60636A1B880B80616A436AA9
:108DE000898899800021436A06E00E2070BD666A7A
:108DF000B668765C5654491C9E888E42F7D8A16AA4
:108E000000291CD01C4AAC3211460C398A608162A0
:108E1000A36A9B888B80A16A836A098819800021D4
:108E2000836A04E0A66AB668765C5654491C9E883C
:108E30008E42F7D82C210A5D0F4918390A73216A2E
:108E4000002909D00B4914310162226A52884A80F4
:108E5000216A026A098811806168002904D00549E5
:108E6000891D416061684160034829463838FFF731
:108E70003FFF70BDD4200020C826002010B5028816
:108E80001A4C102A17D00021112A17D0192A11D1F3
:108E9000807900280ED1607901281BD002281FD0CC
:108EA00003281FD0042805D12171E2680846002A52
:108EB00000D0904710BD8088208110BD61708088EF
:108EC00021898842F9D1012005E021690029F4D0E7
:108ED000884710BD022000F04BF80028F5D110BDE6
:108EE0000320F8E7032020710420F4E7D4200020B9
:108EF00010B5022801D003280ED1084C2078002894
:108F00000AD000202070607900F032F8002803D0E9
:108F10002169002900D0884710BD0000D42000201E
:108F200010B507210148FFF752F910BDEC200020D1
:108F300010B50D480078012814D10C4C6078002839
:108F400010D16079002802D074DF00280BD10120F5
:108F50006070607900F00CF8002803D021690029C6
:108F600000D08847002010BDC8260020D420002053
:108F7000F0B5754C87B06071002606A8069602F021
:108F800061FE0127082806D000286FD10698002826
:108F900002D02770D4E00696FFF7C2FF6B4D6878C9
:108FA000002802D06079012805D0A87800280AD0CE
:108FB0006079022807D1E168002903D0E770082012
:108FC000884700E0E6706079012808D168780028B9
:108FD00009D05D48193002F0C7FD002803D0607940
:108FE000022802D00CE002206071A878002805D089
:108FF0005548193002F0B8FD002801D103206071F6
:10900000287B002804D16079032801D104206071F5
:10901000287E002804D16079042801D16671267168
:10902000E16800290AD06079032801D0042805D11D
:109030002878002802D06078002818D0A67018215F
:109040006846FFF7C4F868460670019606720396F4
:10905000607901280FD0022816D03C4E24363746BE
:109060005C3F03281CD004285ED13BE069E0A77078
:1090700007208847E3E734481830019068460770B6
:1090800046820682277152E02F48183001906846C8
:10909000077029894182A98801820220207146E057
:1090A000A88A69464882288A08822848243003F022
:1090B0004DFD002805D02878002802D060780028CF
:1090C00001D003202FE00220694608720420039695
:1090D000F8701E4800213838FFF70AFE002830D10A
:1090E000052020E0A88B69460882288C4882174812
:1090F000243003F02BFD002805D02878002802D06A
:109100006078002801D004200DE002206946087232
:1091100004200396F8700D4800213838FFF7E8FD69
:1091200000280ED1062020716079002803D06846FF
:1091300073DF002805D1E168002901D02079884734
:10914000002007B0F0BD0000D4200020C826002079
:1091500073B586B004002FD06A46217C127F0020B0
:10916000914227D00025012668460095068045805B
:1091700007A80190E188608A6A46A4DF002819D117
:109180006846007F2074608A0D49884216D0207D91
:10919000002813D00295039504950595E18868464B
:1091A0000181867241888181049001980590608ACE
:1091B00002A9A6DF08B070BD0E20FBE70820F9E782
:1091C000FFFF000038B50D4604001AD0002D18D05E
:1091D000286820600020C043608228792075FF2025
:1091E000207401216846817007490180221D69466B
:1091F0000120A0DF002803D129462046FFF7BEFC4E
:1092000038BD0E2038BD00000F18000038B500280A
:1092100024D0002922D00A88102A1AD0112A1AD064
:10922000502A1BD1027D002A18D0891D0A88438943
:109230009A4213D10A8B022A10D10268002A0DD05B
:10924000CB7E8C7E19022143C907C90F07D00021AC
:1092500006E0898801E00021C943418238BD01212F
:109260006B4619706946904738BD000070B50546D9
:1092700001461C220E48FEF783FF0E4C0026267086
:109280002968002906D00822201DFEF779FF201D3D
:109290007ADF02E00748001D7BDF002807D1401E6F
:1092A00060806670044A00210448FFF76BFB70BDC4
:1092B000242500205C20002091C9010090CB0100F2
:1092C000F8B5214C028800271E4DE689102A15D0DA
:1092D0001E49112A21D0122A2DD0502A1CD1801DBE
:1092E0000288B24218D1028B022A15D1C27E837E37
:1092F00010021843C007C00F0CD112E081886980AA
:1093000001461048082216310C30FEF739FF6F7005
:10931000002E01D100F0E4FFF8BD0020C0436880BA
:109320006F700868FFF7CAFB0028F5D0A169002913
:10933000F2D08847F8BD811D024808220C30FEF7A4
:109340001FFFE7E75C2000202425002090CB0100D0
:109350007CB5054608880C460930904201D90C209E
:109360007CBD684671DF0028FAD121880820685446
:1093700020881B21401C80B220802954208800A90D
:10938000401C80B22080401906220131FEF7F8FE11
:1093900020886946801D80B220800978002900D08D
:1093A000012129542088401C208000207CBD000021
:1093B0007FB504460121684681714A4981804A4A45
:1093C00001A90120A0DF00287ED1228825463C3556
:1093D000002A09D044482B46801C0090434861680D
:1093E00000F094FD00287BD12289002A0AD03E4853
:1093F0002B460A3000903D48E168401F00F086FD92
:1094000000286DD1228A002A0AD037482B46123014
:10941000009036486169001F00F078FD00285FD198
:10942000228B002A0AD030482B461A3000902F4851
:10943000E169801E00F06AFD002851D1228C002ACB
:109440000AD029482B46223000902848616AC01E65
:1094500000F05CFD002843D1228D002A0AD022486A
:109460002B462A3000902148E16A401E00F04EFD54
:10947000002835D1216B00290ED002A803F022F973
:1094800019482B46323000901848082202A9801F44
:1094900000F03CFD002823D1606B00280BD012495E
:1094A0002B463A310091027901681048401C00F0C7
:1094B0002DFD002814D1A16B002910D002A802F0C4
:1094C000A1FB0948423000E00AE0009007482B4623
:1094D000072202A9273000F019FD002800D1002042
:1094E00004B070BD0A18000070200020292A000076
:1094F00070B5044601F0C2F82146164800F088F81D
:10950000144821461838FFF781FE12482146503092
:1095100000F0F0F82046FFF7D3FE204600F0EEF909
:1095200020880D4D102802D011280ED10AE0072006
:1095300000F0EAFA002803D000221146FFF7EAF90A
:10954000A08801E00020C043A8802046FFF796FCD9
:1095500070BD0000082400200020002030B5044623
:10956000008C134A8BB090421FD006AA204601F00F
:1095700051FE694605460880002001900290039044
:10958000049022898A8001228A71088106A80391A9
:109590000490208C01A9A6DF002804D1694609881F
:1095A000A94200D00C200BB030BD0820FBE7000022
:1095B000FFFF000038B50446086820600879607134
:1095C0000020C0430D4620840020222108554C2154
:1095D00008530121684681700C490180A21D69462B
:1095E0000120A0DF00280FD12946204601F0BCFD54
:1095F000002809D1A868002805D02946204600F097
:10960000EDF8002800D1002038BD00000D18000042
:1096100038B50A88102A17D0112A17D0502A18D125
:10962000891D0A8883899A4213D10A8B022A10D194
:109630000268002A0DD0CB7E8C7E19022143C90717
:10964000C90F07D0002106E0898801E00021C94345
:10965000018438BD01216B4619706946904738BDB9
:1096600070B5054604464035A8890E46142807D132
:109670002622A118881EFEF783FDA889401EA88116
:1096800080B241000919401CA8818E8470BD203031
:109690008170704730B50446002085B0C043A08279
:1096A0000868124B0D46A0610FCB03936B4607C3AE
:1096B00021461231684663DF002814D1A17C684638
:1096C00081740B490182224604A90120A0DF0028F1
:1096D00009D12946204600F07BFB002803D129460A
:1096E000204601F09FFE05B030BD0000C8CB010050
:1096F000231500000A88102A10D0112A10D0502AF1
:1097000011D1891D0A8843889A420CD10A8B012AFB
:1097100009D18269002A06D0897E1047898801E034
:109720000021C9438182704703B585B001216A4693
:109730001182002200920192029203926A46917075
:109740004189118006A9039104A90291808A694682
:10975000A6DF07B000BD70B504460D460846FEF70B
:1097600041FD2080656070BD0A78027049784170C3
:10977000022070471CB5002348221549082002F03A
:1097800087FE002803D000221146FFF7C3F800200F
:1097900000900190012069460870684660DF00284B
:1097A00003D000221146FFF7B5F80A4802F066FE22
:1097B000002803D000221146FFF7ACF8064802F05B
:1097C0007FFE002803D000221146FFF7A3F81CBD3E
:1097D000A8230020F1940100B5C60100F0B58FB0B8
:1097E0000D4606461C216846FEF7F1FC68460178E6
:1097F00002200143684601700024019403940494FC
:109800000594012708A806948770144968460184C6
:109810000794E97B0177297C4177807FF921084013
:10982000801CE721084041084900684681771421DF
:1098300009A8FEF7CCFC08A8099007A80A9068467A
:109840008785C4850786A8680D903346F088103355
:1098500009AA6946A2DF0FB0F0BD0000382A000057
:109860001CB5044681786A460C4802F0FFF90028CE
:1098700012D160781C21484309491C2340181A461C
:10988000694602F0ADFA064806494C30807A8000FD
:109890000A582146684690471CBD0000CC20002095
:1098A00020260020A8CB01007CB5134E00250C46D5
:1098B0003060002918D06946002000F0BFF8002869
:1098C00019D101A9012000F0B9F8002813D1684688
:1098D00001790020002901D0022004E069460978BE
:1098E000002900D00B2020707068002802D1FEF7FC
:1098F0005AFF054628467CBD5020002010B5204C5C
:109900000188606810290DD011290AD1401E6060BD
:1099100007D1FEF748FF002803D02168002900D0B6
:10992000884710BD002827D100210D22084600F0ED
:10993000C7F8002801D007281AD10E2200210120E3
:1099400000F0BEF8002801D0072811D1042202211E
:10995000002000F0B5F8002801D0072808D1042223
:109960000221012000F0ACF8002805D0072803D020
:109970002168002900D088476068401C606010BDE5
:109980005020002010B5032000F004FA002801D078
:10999000062800D1002010BDF8B507460024254850
:1099A00002E0641C022C1BD2A2008258BA42F8D1F9
:1099B000022C15D21F48204E0C3800292CD001292A
:1099C0000FD002290CD16000201880194578002D95
:1099D00006D0194814380169002901D02846884763
:1099E000F8BD61006118755C8E19717800290ED080
:1099F00011490A2214394968806851430E4A133AC2
:109A0000FFF71EF8002802D10B48143847700A48A7
:109A1000B17812380155DAE78068FFF74FF8064849
:109A20006100611812388919005D8D78A842CED086
:109A3000F8BD000078CB01004820002002280CD29D
:109A4000074A1269074B80001B5C01209840904335
:109A500000D001200870002070470020FAE70000C5
:109A60000005005078CB010010B5001F0300FEF781
:109A700073FD0B0A09091609090709091B1D0900CD
:109A800002F0B8FC10BD0C481321808876DF08E096
:109A90000028F7D000221146FEF73CFF10BDFFF76B
:109AA00047FA0828F4D110BD012100E00221034843
:109AB000FFF73AFEF5E700000020002058240020C0
:109AC00070B50023022811D2440004190D4D012A5B
:109AD00002D101290DD0002246008019094E8019BB
:109AE00000290CD0012906D0022906D007231846E8
:109AF00070BD0D30C2B22A55F9E74270F7E78270A7
:109B0000F5E700004820002010B5054A0146127A0A
:109B10000020D20702D0084600F058F810BD00001F
:109B20003420002010B5FFF7EFFF10BD70B50E46D2
:109B3000204905464E608D6000200A61A9071ED5A8
:109B40000024002201212046FFF7BAFF641C022CEA
:109B500002D20028F5D012E0002810D172080221AC
:109B60001548FEF79DFE002809D1FEF787FE002864
:109B700005D11148114A00210C38FEF703FFE9070F
:109B800006D007220E499204CA6000238B608A61C6
:109B900000280DD108480B4A00211438FEF7F2FEC8
:109BA000002805D10448084A01211038FEF7EAFED2
:109BB00070BD00003420002080CB01008D9E01008C
:109BC00000050050C9B4010065880100FEB56E4D66
:109BD0000322EB68D2049A4302936B6800939C00C3
:109BE00006461B1900200121019389040746674C92
:109BF0003300FEF7B1FC180D151534414C5B6D7048
:109C0000797079C58686868686B0B6BCC2C5C5140D
:109C10000721029A89049143E160A7602F70FEBD7D
:109C2000E260A7606068400309D5E160A760022E8A
:109C300002D1E120C0000AE07D20400107E0A160E0
:109C4000E760022E01D1C82001E0FF2091302E7084
:109C50006421FEF76BFA00994143002233E0E26091
:109C6000A7606068400304D5E160A7601920400147
:109C7000EDE7A160E760E6E7E260A76060684003A7
:109C800002D5E160A760D7E7A160E760DDE7E260A9
:109C9000A7606068400302D5E160A76001E0A160B1
:109CA000E7602E700098410000220CE0E260A7609F
:109CB0006068400302D5E160A76001E0A160E76051
:109CC0002E700099002232480068FEF7B9FEFEBDF2
:109CD000E260A76012E060680121C9040A4682437D
:109CE000A2600840E060ECE761680120C004024621
:109CF0008A43A2600140E1600199D5E7A160E76075
:109D00002DE023484068FEF7D9FE11218A1B01D0BF
:109D1000002807D00722E96892041140E160A7609B
:109D2000EF60FEBD01210905E960012A0CD910464A
:109D3000C82148436421FEF7F9F9696800224143CC
:109D400013484068FEF77CFE0722E9689204114040
:109D5000A160E760FEBD0321C904E160A7602E7029
:109D6000FEBD01210905E160A7604910C6E7012198
:109D7000C904E160A7604900C0E70321C904BDE749
:109D800007218904BAE700003420002000050050B4
:109D90006CCB0100F0B500210B4C0C4D03273F04A8
:109DA0008A00A25892005619326801238B40034062
:109DB00000D00323BA431B0413433360491C022918
:109DC000EED30020F0BD000078CB0100000700506A
:109DD00070B500240546601C90B00007000F08A96C
:109DE000103008940870601C0007000F3030487075
:109DF0008878F9263040801C88701C2101A8FEF765
:109E0000E6F96946087912210843694608711AA0E3
:109E100002900F20C881888108A8049405940794B3
:109E20000690A87C08A98871174869468884112083
:109E300000940870002048708878E7213040801C2A
:109E40000840400840006946887014210AA8FEF7BF
:109E5000BEF909A80A9068460B9001206946088659
:109E60004C8688860E942B4628880A330AAA01A9B4
:109E7000A2DF10B070BD0000476574427574746F46
:109E80006E537461747573002415000010B500786A
:109E90000221FFF781FD10BD0022D2438300044957
:109EA0000428CA5002D308182030027770470000F7
:109EB00094270020F0B50025ED43002A02D00023AE
:109EC000042601E0042308260B4C04E09F00E75918
:109ED0007F1C04D05B1CB342F8D32846F0BD261883
:109EE0005DB2203635709E00A151002AF5D1E118EF
:109EF00020310877F1E70000942700200249091873
:109F0000202008567047000094270020FFB58FB02E
:109F10001E4615460F0004D1002211461046FEF7DA
:109F2000F9FC002D04D1002211461046FEF7F2FC88
:109F30001C216846FEF74BF9684601780220014370
:109F4000684601700024019403940494059401214F
:109F500008A80694817068460F99018407943178A7
:109F6000017771784177807FF9210840801CE721D3
:109F700008404108490068468177142109A8FEF786
:109F800026F908A8099007A80A9068468585C4851F
:109F9000058604480D9709AA69460088189BA2DF28
:109FA00013B0F0BD70200020F8B53B4814220178B2
:109FB00051430C18241DA0680C2148433649E7681A
:109FC000CC314018058941890091466801F0DCFEDA
:109FD00001463846FEF7AAF8002940D00020009933
:109FE000A2884D436188AE198918CD1900222B49EA
:109FF00000280A6109D001F0C7FE6188884230D08C
:10A00000B54202D1A08800282BD0A068022828D011
:10A0100001F0BAFE0146A088C019FEF787F81F4C70
:10A020008808E06001F0B0FE01462846FEF77EF8A1
:10A0300000292CD0B5422AD0ADB2B6B201F0A4FEB0
:10A0400001463046FEF772F8074601F09DFE0146D4
:10A050002846FEF76BF887420DD1701B15E00120F2
:10A06000BDE701F091FE01463846FEF75FF80B4967
:10A07000486103200CE001F087FE064601F084FEF3
:10A0800001462846FEF752F8701A80082061022027
:10A0900002F0CAF9F8BD0000F4270020F4200020E7
:10A0A00010B5074814220178514308180079042894
:10A0B00002D000F059F810BD012002F0B5F910BD32
:10A0C000F427002010B50B481422017851430818DA
:10A0D000094AC18811620079012806D0032801D0FD
:10A0E000042801D1FFF760FF10BD012002F09CF9A8
:10A0F00010BD0000F4270020F4200020142250435B
:10A10000054A002180180171C18001220161C260ED
:10A110004161018170470000F4270020F8B5104C20
:10A12000069E65780A2D19D027787D190A2D00D34F
:10A130000A3D14277D432D1928716A6103C92961DD
:10A14000E860EB802E816078401C607005480078E4
:10A15000002801D1FFF7B6FF0020F8BD0420F8BDAC
:10A16000F4270020F420002010B50D4C1421207895
:10A1700048430119091D0020FEF7DEFB2078FFF798
:10A18000BDFF6078401E60702078401CC0B2207017
:10A190000A2801D100202070002002F045F910BDEE
:10A1A000F4270020F8B52348C16800293ED00E6886
:10A1B00021494C680769C078E11B0D022D0AED1C8E
:10A1C000002814D101201D4A000450601B4A403A67
:10A1D00050601B49400008601A4908601A49012074
:10A1E00008602F20FDF776FF12490120C870B542A4
:10A1F00000D23546E81900020F4B000A40331860C0
:10A200000D4A5168001B091B0902090A0002C91CFA
:10A21000000A814209D9506818602F20FDF75AFFC3
:10A2200001200749400480390860F8BD01F054FF5F
:10A23000F8BD00002C210020001501404013014012
:10A2400080E200E000E100E000100140F8B50646C1
:10A25000108814468446801D0D46984201D90C2072
:10A26000F8BD32880720062AFAD31927FF01184BB8
:10A27000BA4201D99A42F3D171880629F0D3B94282
:10A2800001D99942ECD19A4203D0994201D08A4235
:10A29000E6D805216046295420881221401C80B24E
:10A2A000208029542088401C80B2208041193088A9
:10A2B00002F05EFB2188401880B22080411970882E
:10A2C00002F056FB2188401820800020F8BD0000D5
:10A2D000FFFF000010B500221146FEF71BFB10BD6A
:10A2E000F8B5164801F01AF8144D00260C3D144C30
:10A2F000002807D0616900291CD001206A4610702F
:10A30000684616E02878002805D06169002911D038
:10A31000684606700DE0687800280DD0A1680948ED
:10A3200000220068FEF78CFB002803D0A1690029F9
:10A3300000D088472E70F8BD6168F0E768200020E3
:10A340002425002090CB010070B5094B04469E7A6D
:10A35000082000250E4207D00648844202D0188902
:10A36000A04202D10020156070BD052070BD000024
:10A3700060260020FFFF00000C214843064910B56D
:10A38000012240188272911E0181FF21C1720721B2
:10A39000FDF71DFF10BD00006026002010B5134C16
:10A3A000207900071FD46069401C6061E0680028C4
:10A3B00001D0042004E000F0E3FF002803D00220D5
:10A3C00002F06EF910BD2069002809D06068C1074D
:10A3D00001D00320F4E70121084360600020EFE78B
:10A3E000FFF75EFE10BD02F04FF910BDF420002013
:10A3F00010B5084841680A0708D48A0702D5012227
:10A4000011434160022002F04BF910BD02F03CF90B
:10A4100010BD0000F4200020F8B500260124154DE1
:10A4200024E06968F00047183878214681402A699D
:10A430000B46134218D08A432A6101F0E5FA3A78B4
:10A440002146EB68914019400346934099420BD155
:10A450007978012901D0012100E000217B68414089
:10A46000002B01D010469847761CF6B22878864219
:10A47000D7D3F8BD18210020FEB50E4604468178DA
:10A480006A46234801F0F2FB002826D160780C21AF
:10A49000204F4843C019807A40061FD4022E1DD099
:10A4A000012E1DD01C4DA0781C2148431B490023C0
:10A4B00041181C226846A847002813D0022E0CD051
:10A4C00020780C21484313490C314018807A1449F4
:10A4D00080000A58214668469047FEBD114DE2E7CC
:10A4E000114DE0E7022EF8D060780C214843C019E6
:10A4F000817ABF221140817260781C21484305494E
:10A50000403941181C231A466846A847D8E700007E
:10A51000CC200020602600200DC601005C25002014
:10A5200098CB010021C0010045BF010070B5054670
:10A53000114A124800241C2363431B189B7EFF2BE7
:10A5400004D0641C072CF6D3104670BD0A78022A8A
:10A5500009D01C2262431018FD2282761030072297
:10A56000FDF70EFE04E01C2161430818FE218176F0
:10A570002C700022E8E70000438000005C250020EA
:10A58000F7B505250F4F06460024002E0AD01C20E3
:10A590006043C019103007223146FDF72AFE00281B
:10A5A00007D00AE01C206043C019018B0298814249
:10A5B00003D101980025046002E0641C072CE4D359
:10A5C0002846FEBD5C2500207CB5054681B26A4662
:10A5D000074801F04BFB040008D17421684601F0E4
:10A5E0006FFB040002D1284601F0CAFA20467CBD68
:10A5F000CC20002010B5100003D000221146FEF739
:10A6000089F9002010BD00001FB56946087301F0EC
:10A61000C1FB002803D000221146FEF77BF903A8F6
:10A6200000F026FA002803D000221146FEF772F946
:10A6300001A805210130FDF7CAFD694648790122CC
:10A640001043E12108400C30DF2108406946487181
:10A65000072088711020C871064800900A710648CA
:10A6600000F02CFB002803D000221146FEF752F91F
:10A670001FBD0000F5A5010002200020F0B5054631
:10A6800093B000200290FF24ED480E94007800283B
:10A690004BD0EC4F3868002847D001A800F0DAF919
:10A6A000002803D000221146FEF734F9281D05903A
:10A6B0002A2069460883FF20002688710E710396C0
:10A6C000E04C28880C3C10280ED0A88803AA022150
:10A6D000FFF73AFE002807D103980C2141430919DE
:10A6E000CA7A69468A7148712888132217287CD053
:10A6F0000FDC10281BD0112853D0132876D0142833
:10A7000013D103980C2148430019C07AFF2871D057
:10A710008DE0CD4918286BD01C286AD0522804D16E
:10A72000B87A8000095801A8884713B0F0BDC74F18
:10A7300003AA01213846FFF707FE0028F5D1039947
:10A740000C20484302220019827211236A461374B6
:10A750005171A98801810722A91DFDF711FD287DEE
:10A76000C10707D04108B6480830405CFF2808D030
:10A770000E9006E03A460EA9A81DFFF701FF00283B
:10A780000ED103990C22514309190E98C8728A7A86
:10A7900008231A438A726946887101A8FFF760F896
:10A7A00039E103980C2148430119887AFD221040B1
:10A7B0008872010706D5C0090DD0002101A8FFF756
:10A7C0005BFE08E068468079FF2804D001F0D8F9E4
:10A7D000FF206946887103980C225043102100190C
:10A7E000817212206946087415E17FE030E001E0D3
:10A7F000D5E00EE1EA890EA90020FFF7C1FE00288E
:10A800000ED103980C22504300190E99C172837A1D
:10A810000822134383726846817101A8FFF720F86C
:10A8200003980C2148430019C07AFF2806D00398EA
:10A830001C21484383494C394018029003981C213D
:10A84000484383494218A8880023029982DF6CE7B5
:10A8500068460274039B0C2058430119887A04222D
:10A8600010438872C87AFF2830D0162069460874D1
:10A870002420434373481A21303818180830FDF754
:10A88000A6FC03980C2148430019817A4022114309
:10A89000817203990C2200204A430A901219D27A3D
:10A8A0001C235A436A4B0C90D2180B921C22514322
:10A8B0001A46C43289180791089009903A1DA88851
:10A8C00007AB00217FDF0028C1D1A4E00EA8FFF76D
:10A8D0002DFE002801D00646DBE769460E988871F8
:10A8E00003990C2251430919C872D2E7787A4008BB
:10A8F00040007872039A0C209446424311198B7AD7
:10A90000FB2003408B7214206F463874A87900280E
:10A9100004D0C87AFFF758FEAE797CE0E8794007AA
:10A9200079D5B879FF2876D008273B438B72EB7A2C
:10A930009B0708D51C2503466B43454D5B199D7E3F
:10A940006D086D009D76CB7AFF2B64D0A25C022A45
:10A9500010D01C2250433E4D072240191030FDF705
:10A960000FFC684680791C2148434019817EFD22F6
:10A9700011400EE061461C225143324A4C3A89187C
:10A980004A8A1C214843324940180283817E490883
:10A9900049008176012101A8FFF76EFD3BE0A8790F
:10A9A0000209012A23D10007000F01281FD10398B3
:10A9B0000C2242431219927A120718D524214843D7
:10A9C00020493039401808301A21FDF700FC1620C4
:10A9D0006946087403980C2148430119887A60225B
:10A9E00010438872787A0221084378720FE0039846
:10A9F0000C2250430019827A80231A438272152058
:10AA00006A461074B87A8000095801A88847002661
:10AA100001E068460274324604A901A8FDF786FFEA
:10AA20006846007C122800D07FE603980C21414341
:10AA30000919897A0129F7D0FFF79EFC75E6000015
:10AA4000BC2000206C260020B8CB0100FFFF0000D6
:10AA50005C250020002806D0FF2101704170817024
:10AA6000C170002070470148704700000E80000050
:10AA7000F0B585B0040036D0294800250560457240
:10AA800085722846FFF778FC254824213038FDF7E9
:10AA90009EFB0026FF27304601F072F821488755BB
:10AAA000761C072EF7D37421684681800721C18068
:10AAB0001D481C4900900831684601F0E5F900285E
:10AAC0000FD1184E0120083E3070207800280CD09D
:10AAD00069468888C988484381B23046103001F001
:10AAE000EFF805B0F0BD1148FBE7114F00240D4809
:10AAF000A1B202AA083001F0B9F8002809D11C203F
:10AB00006043C01900231C2202A901F069F9002842
:10AB100001D03570E5E7641C072CE8D3E1E70000BD
:10AB20006C260020C420002035AB01000E80000000
:10AB30005C250020FFB55C4891B000681A9F1E4656
:10AB4000002875D0742F73D804A8FFF783FF00285E
:10AB500003D000221146FDF7DDFE00246846047490
:10AB60000470254606970796A9B20EAA4F4801F031
:10AB70007DF8002806D108220EA91198FDF739FBAF
:10AB8000002817D06D1C072DEED36846857CFF2D5D
:10AB90004ED01298032810D045481C21301AFDF7DA
:10ABA000C5FA012707281ED205A80190139800288E
:10ABB0000BD011E068468574E7E7742F03D040207E
:10ABC0006946087069E02020FAE738463749A8400E
:10ABD0001039496808425ED0284601F0CFFE202097
:10ABE0006946087048E030481C214C38301AFDF79F
:10ABF0009DFA00281DD02C4824213038301AFDF74A
:10AC000095FA01002B482AD040216A4611702A4942
:10AC10008E4242D0264AA9001C3A5158B1423AD13C
:10AC200005A90191C07A854226D16846447423E083
:10AC300031E005A801902020694608701A484C743C
:10AC40000C300C90583808901C20454318480B9441
:10AC50002818099008A80790182006900CE03022C8
:10AC600069460A704C74CF74807A800704D4114806
:10AC700024212438FDF7ABFA129869460228087897
:10AC80000FD0022108436946087005A8019004A866
:10AC9000139AFDF74BFE15B0F0BD69460878032105
:10ACA000F0E73843F0E700006C260020CC200020BD
:10ACB0005C2500206026002094CB010070B506467C
:10ACC00018480D46007800280ED01749002E0ED0E7
:10ACD000002D0CD02868002809D0144C21680029C8
:10ACE00007D011480A3870BD0F48801F70BD084654
:10ACF00070BD20600522691D201DFDF741FA2879ED
:10AD0000A072207A0221400840000843FB22104034
:10AD10002072E0790123184308431040E0710020BD
:10AD2000307070BDBC2000200E8000006C2600201A
:10AD300010B50E4900234A788C78A24212D0521CDA
:10AD4000D2B24A70022A00D14B704A78074B920067
:10AD500018339A580260086910180002000A086146
:10AD6000012010BD0360002010BD00002C21002038
:10AD700010B5002803D0112802D0FDF7F3FD10BD57
:10AD80000248082241681143416010BDF4200020B0
:10AD900010B51C4C217820464068012906D00229B4
:10ADA00029D0032912D1000717D513E0000711D4C9
:10ADB00015481422017851430818C188A28B891ABA
:10ADC0000904090CC18002D001F022FC10BDFFF77C
:10ADD000CBF910BD00F0B4FC10BD6069401C60618F
:10ADE00000F0CEFA002803D0207801F01DFB10BD42
:10ADF000FFF756F910BD6078044980000858804775
:10AE000010BD0000F4200020F4270020ECCB01004E
:10AE100010B528DFFFF7ACFF10BD10B529DFFFF735
:10AE2000A7FF10BD0EB5112069460872062214A1B5
:10AE300002A87CDF002803D000221146FDF76AFD3E
:10AE4000114878DF002803D000221146FDF762FD8B
:10AE50000020FF2200904132694601900A80412281
:10AE6000D2004A808880FF209130C88068467ADF0F
:10AE7000002803D000221146FDF74CFD0EBD000056
:10AE80004B7A5F48524D000041030000002070479C
:10AE90000020704700207047F8B50646407824210E
:10AEA00004464C4324490C2250436118224A002591
:10AEB0004B6824328018AE462F469C46002B0CD09F
:10AEC000827A1346D20908D05A0606D40D461A4A89
:10AED000614689B2175908358E46174C00892434CB
:10AEE0003B4672462946A9DF0B2819D0002800D01E
:10AEF0001248012F13D170780C21484300190089A2
:10AF00000F4AA7DF00280AD00E49884212D008282D
:10AF100010D0891C88420DD011280BD00020F8BD1C
:10AF200070780C2148430123001900897246294694
:10AF3000A9DFE0E70148F8BD3C2600204180000081
:10AF4000FFFF00000230000070B50C46014660783B
:10AF50002422084D50434019382300F041FF0028B7
:10AF600007D161782422514349194A68521C00D103
:10AF70004A6070BD3C260020F3B589B00D461A200A
:10AF80006946888368780C2103274843224E3B4654
:10AF90008019008907AA6946AADF002838D1687895
:10AFA00024214843741A0019694608308A8BFDF73A
:10AFB00020F90028687807D02421484301194968FE
:10AFC00000290DD0154E0CE00C2141438919897AD6
:10AFD00089071DD4242148430019FDF7F8F817E02C
:10AFE0000F4E27506846828B687824214843001909
:10AFF000426068784843001908306946FDF7C0F898
:10B000006878242148430119382324220998B0473D
:10B0100000200BB0F0BD00006026002021C0010020
:10B0200045BF010010B5FFF737FF10BD10B5FFF7A2
:10B030008BFF10BD10B5FFF79FFF10BDF8B5074699
:10B04000114E0125BD403068FDF738FD002806D1BE
:10B050000E4C20690146294202D0A8432061F8BD68
:10B06000384600F0D1FC0028E06801D0284300E019
:10B07000A843E0602069002228432061A16830686D
:10B08000FDF7DEFCF8BD000000CC01001821002017
:10B0900070B51B4C207900072ED41A481422017871
:10B0A00051430D182E6900F06FFE0146E8882A8989
:10B0B000761E80188019FDF739F8216900250029CE
:10B0C00009D06169814206D1E560606801210843C9
:10B0D000606000200AE000F053F9002802D002204E
:10B0E000E56003E02069002803D0032001F0D8FACE
:10B0F00070BDFEF7D5FF70BD01F0C6FA70BD00004F
:10B10000F4200020F427002010B51349134801F063
:10B1100091F8124C81B2183CE068401CE0600E4887
:10B120007C38FEF71BFA00280BD0082809D00C4900
:10B13000884206D00B49884203D000221146FDF711
:10B14000E9FB0321E068FCF7F1FF002901D00120B1
:10B1500000E00020207010BD842400201820002072
:10B160000430000001340000F0B5002406460D460E
:10B17000601C010795B0090F103108A80C940174E8
:10B18000297B4174817CF9273940891C81741C21F9
:10B1900005A8FDF71CF86846017D102001436846AC
:10B1A00001750CA806940A900894099401220B9446
:10B1B00008A882761649684601870D94697B08A81D
:10B1C0000175A97B4175817DE7203940891C0140CB
:10B1D000114308A8817514216846FCF7F8FF0EA8F2
:10B1E00000900DA801900FAA0021304600F012F83F
:10B1F0000146684601811421448181810FA8049091
:10B200003346F08808336A4605A9A2DF15B0F0BDC1
:10B21000372A0000F7B542790025002A00D004251E
:10B220002222135C0222002B00D01543CBB2FF294F
:10B2300007D901221543029A090A53709170032617
:10B2400002E0029902264B7004464034A18900298D
:10B2500001D010210D43002716E0B21C142A09D991
:10B2600089B2C91B4A007900091824312430FCF73F
:10B2700087FF0CE0029B790009189B19898C1970D3
:10B28000090A5970D6B27F1CA189B942E5DCA089B0
:10B29000C01BA081029805703046FEBDF8B51E4C5B
:10B2A0002078002837D02069002807D00026E068E1
:10B2B000002805D00025002E04D013E00126F6E773
:10B2C0000125F8E7684651DF052806D0002806D09A
:10B2D00000221146FDF71EFB04E0012602E0216971
:10B2E00000988847002D12D1608869460880A068C0
:10B2F00061DF052806D0002806D000221146FDF7A0
:10B3000009FB04E0012502E0E168A0688847002EFF
:10B31000D8D0002DCFD0F8BD4C2100204188054861
:10B320000288914204D34088814201D801207047AD
:10B3300000207047602000201048018CC9B201290C
:10B3400017D1818C090714D1018D09060A0F03D189
:10B35000828D1206120F0ED0090F012903D1828DA2
:10B360001206120F07D0032903D1808D0006000FAB
:10B3700001D000207047012070470000C00F00F08E
:10B3800070B50E481422017851430C18256900F05D
:10B39000FBFC0146E08822896D1E80184019FCF7ED
:10B3A000C5FE07494A69824206D3824202D1086932
:10B3B000002801D0002070BD012070BDF4270020BE
:10B3C000F4200020800701D0002070470120704742
:10B3D00030B51588EC1C9C4201D90C2030BD0224EC
:10B3E0004C5513881C255B1C9BB21380CD541388CD
:10B3F0005B1C9BB21380012807D0022807D00328CA
:10B4000007D0042807D0072030BD002004E0012029
:10B4100002E0CC5401E00320C8541088401C108086
:10B42000002030BD30B58FB005461C216846FCF7C2
:10B43000CEFE69460878FD21084008210843694688
:10B4400008701CA001900C204881088100240394FE
:10B45000049405940694A87C08A988701948694644
:10B460000884601C0007000F103007940877601CE8
:10B470000007000F10304877897FF9200140891CB0
:10B48000E72001404808400069468877142109A850
:10B49000FCF79DFE08A8099007A80A9001206946BC
:10B4A0008885CC8508860D942888AB1C09AAA2DF64
:10B4B0000FB030BD5365744C65645374617475731B
:10B4C000000000002515000010B50448017AC907E6
:10B4D00002D00078FEF77AFB10BD00003420002077
:10B4E000F8B52C49C8680A690C780F7989688646CE
:10B4F000944600913EE00099E20055182A7836E023
:10B50000182353436968521CC918AB78D2B29342CE
:10B5100000D100220B78022B02D0032B27D123E08D
:10B520004E680346014603E0B14204D00B46C969A8
:10B5300000291CD0F8E7002919D08B4208D1C06936
:10B54000002805D1144F0126BE600026B44601270D
:10B550000E68C969D961002909D00B689B190B6075
:10B5600005E00174C06900E000210028F9D1697884
:10B570009142C5D12146641EE4B20029BBD10549E0
:10B5800062460A61C8600F71704501D00120F8BDA4
:10B590000020F8BD2C21002000100140F8B5044621
:10B5A00031480026C168009107784EE02E48F90026
:10B5B00080680D1843E0002C02D02046E4691FE0AB
:10B5C0002878182141436A68401CC0B2511828707D
:10B5D000AA78904200D12E700A784868012A30D1AA
:10B5E000027C002A2DD18A684260CA6882600A699A
:10B5F000C260496981611C490979002900D046600F
:10B60000194943680A699C46991A0902174B090AA5
:10B61000994202D28268891807E06146511A0902EC
:10B620008268090A8A4202D9511A016000E0066064
:10B630004660012186600174C66101F0C7F8002CE4
:10B64000B9D1287869788842BAD138467F1EFFB2CE
:10B650000028ABD10448C1680098814201D0012084
:10B66000F8BD0020F8BD00002C210020FFFF7F0066
:10B6700088B001F00DF92D4A2D490320FEF756FA46
:10B68000002803D000221146FDF744F901A900204B
:10B69000FEF70AF9002803D000221146FDF73AF917
:10B6A00068460079022837D0002069460870FEF706
:10B6B00061F869460878FEF7A7FFFFF7B3FBFDF7CF
:10B6C00099F800F00BFE00F05DFD1C216846FCF7C8
:10B6D0007EFD0521C90301910F210904002002917B
:10B6E0000090032269460A7312498A896946CA8111
:10B6F000087411480590114806906846FDF7B6FD9C
:10B70000002803D000221146FDF704F9FDF700FAE6
:10B710000320FDF72DFC02E00120C6E748DF0028EA
:10B72000FCD000221146FDF7F5F8F7E7699A010011
:10B73000CD0C00000824002025BB0100D5A201008B
:10B7400010B504480822416891434160007800F038
:10B750006BFE10BDF420002070B5144682880546AB
:10B760000E46921C2088911C4118994201D8FE2A4D
:10B7700001D90C2070BD521C32542088FF21401C7E
:10B7800080B2208031542088401C80B220808119F2
:10B79000288801F0EDF82188401880B22080AA881E
:10B7A000002A09D0A968002908D08019FCF7E8FC14
:10B7B0002088A98840182080002070BD072070BD17
:10B7C000F8B50F46017814460546012902D168787C
:10B7D000002806D02088821C9A422DD8012902D048
:10B7E00006E00720F8BD69784118891C994223D8E2
:10B7F000181A801E86B2684606802188B81C081870
:10B8000069467DDF0028EDD12878022805D16946F8
:10B810000988B14201D809210AE00821012805D18F
:10B820006878B04202D86A46108001E06846068017
:10B8300068460088FE2801D90C20F8BD2288401CEB
:10B84000B8542088401C80B2208039542088694632
:10B85000401C20800988401820800020F8BD00206E
:10B860007047002070470020704700008207D30E09
:10B87000FF229A408907090E10B5994000280BDA7B
:10B8800003071B0F083B9C080C4BA400E318DC6962
:10B8900094430C43DC6107E08408094BA400E418DE
:10B8A000236893430B432360C106C90E01208840DF
:10B8B000044908600449086010BD000000ED00E084
:10B8C00000E400E080E200E000E100E0F3B581B0D8
:10B8D0000F46019800F07EF9012400281E4E0198C1
:10B8E00017D0FEF70BFB80192030007F800903285A
:10B8F00002D001280BD005E01848006901998C405E
:10B90000204204D00321019800F0CCF8FEBD0221B2
:10B91000F9E700F06BF90028F8D00198FEF7EEFA8D
:10B9200005468100C81D0E4AF93089180A6980B29F
:10B9300022430A610B49401800210160002FE5D025
:10B940000198FEF7DBFA800030580028DED0064868
:10B95000AC404460FEBD000094270020000500506C
:10B96000006500400060004000630040FEB51546E1
:10B970000E460446002700F023F9002801D00827CE
:10B9800038E0F27829462046FEF794FA0546401C36
:10B990002FD0B078002807D01748A10009180868F0
:10B9A00002229043086007E000217378204600914E
:10B9B0000A46019100F064F8F078002810D00F4892
:10B9C000AA001018317802690D4B1A400261E20694
:10B9D000D20C8907890B0A4301690A43026109E015
:10B9E0000848327840192030017F920111430177D5
:10B9F00000E004273846FEBD000700500065004007
:10BA0000FFE0FCFF9427002003490969C140C807F3
:10BA1000C00F00D0012070470005005070B5124DD6
:10BA20002879002801D0082070BD0F490020403936
:10BA3000421E0B182033401CC0B21A702028F8D3C5
:10BA400000242046FEF728FA641CE4B2082CF8D340
:10BA500003210620FFF70AFF01200449C0074860C0
:10BA600001202871002070BDD42700200063004011
:10BA700002480079002800D001207047D427002018
:10BA800030B552000A439900039C0A432102049DE9
:10BA90000A4329040A43024980004018026030BD6D
:10BAA00000070050820006481018026803231B0498
:10BAB0009A430260026809040A430260704700006A
:10BAC00000070050034940180068012800D00020FA
:10BAD00070470000006000400921C9014118086852
:10BAE000086070474058002800D0012070470322AA
:10BAF000120280184068084000D00120704710B53D
:10BB000000280BD0032808D10220FDF7FDFF0028F4
:10BB100003D000221146FCF7FDFE10BD00F06AFCC8
:10BB200010BD000010B50078002809D105483B2160
:10BB3000808876DF002803D000221146FCF7EAFE59
:10BB400010BD00000020002010B5012906D00229F8
:10BB500007D000211220FDF7E5FF10BD00211320C2
:10BB6000F9E700211420F6E70021425C002A01D009
:10BB700001207047491C0629F7D3002070470000B8
:10BB800070B505461C200D49684344182046113005
:10BB90000621FCF71CFB20461021FCF718FBFF21B7
:10BBA00021740020A176C0432083284600F0E6FEE1
:10BBB000024A0020A9001C3A505070BD5C250020AC
:10BBC0000349081820214156C817401C704700003F
:10BBD000942700200449081820214156042901DB3C
:10BBE000012070470020704794270020044908185E
:10BBF00020214156042901D20120704700207047BE
:10BC00009427002070B50D00044604D1002211468F
:10BC10001046FCF77FFE002C04D10022114610468E
:10BC2000FCF778FE2878207069886170090AA17095
:10BC3000A988E170090A2171E8886071000AA07181
:10BC400070BD000007490979490701D408207047F1
:10BC5000002804D0044949780160002070470E2074
:10BC600070470000F4200020F427002030B5124B6C
:10BC70001B795B0701D4082030BD002805D0002ABD
:10BC800003D00468002C10D101E00E2030BD0B4B16
:10BC90001D68002D09D045681889414369185D89E0
:10BCA000454358682818884201D8072030BD1460E1
:10BCB0000020516030BD0000F4200020C02800208A
:10BCC000FEB5054625480E460079400701D40820F8
:10BCD000FEBD002D03D02868002834D101E00E20DD
:10BCE000FEBD1F4C216800292DD060892189484361
:10BCF000616841186868814225D9FFF763FB002815
:10BD00000FD06868019029680C2251430F19796897
:10BD10000091401A39890C46FCF708FA002912D123
:10BD200001E01020FEBD21463046FCF7FFF9002956
:10BD300009D1002E07D078894443019881190098D1
:10BD40000019814201D90720FEBD00200246009063
:10BD5000334629460320FEF7E1F9FEBDF42000201A
:10BD6000C028002010B507484469601C06D000F0C8
:10BD70000BF801462046FCF7D9F910BD0120000759
:10BD8000406910BD0010001001200007006980B25A
:10BD90007047000070B500240F48254604704470B9
:10BDA0002846FEF7ABF96D1C0A2DF9D30B4D6C80BC
:10BDB000FFF7D8FF861EFFF7E7FF46430648AE6051
:10BDC000CC306C610460048144812C70AC6104202F
:10BDD000EC616860002070BDF4270020F420002092
:10BDE000FFB5274881B000791F4616460D4640072B
:10BDF00002D4082005B0F0BD002D06D0019800281F
:10BE000003D02868002815D101E00E20F2E71D4C70
:10BE1000206800280ED06189208962684143891812
:10BE20006A68914206D9002E04D0B04202D3F119BB
:10BE3000814201D90720DDE70198FFF7C3FA002806
:10BE40001BD03846FFF7BEFA002816D06868FFF707
:10BE5000B9FA002811D068683246C1190198FCF778
:10BE60008FF9009628680C214843245800220221AB
:10BE70002846019BA0470020BCE71020BAE700003D
:10BE8000F4200020C0280020F8B52C4D0446287965
:10BE90000E46400701D40820F8BD002C20D0002E0B
:10BEA0001ED0206800281BD0FFF76EFF0146A08837
:10BEB000814213D3102811D3E08800280ED0FFF759
:10BEC00051FF471EFFF760FF4743E288A188A8683B
:10BED0004A431218974201D3890703D00720F8BDBF
:10BEE0000E20F8BD6988012926D031600C22144B40
:10BEF00051437060CA18506020685850A088108163
:10BF0000E0885081FFF740FF0646FFF73DFFA1881C
:10BF1000E288401E514340183146FCF71DF90446A3
:10BF2000FFF732FF0146A86861430818A8606888D7
:10BF3000401C68800020F8BD0420F8BDF4200020DB
:10BF4000C0280020F8B5044620481E460079154652
:10BF50000F46400701D40820F8BD002F05D0002C63
:10BF600003D02068002815D101E00E20F8BD184844
:10BF7000016800290ED04289018940684A4310189F
:10BF80006268904206D9002D04D0A94202D3A819B4
:10BF9000884201D90720F8BD3846FFF713FA002878
:10BFA00011D03046FFF70EFA00280CD06068FFF77A
:10BFB00009FA002807D02B463A4621460120009670
:10BFC000FEF7ACF8F8BD1020F8BD0000F42000200A
:10BFD000C028002010B5114902460878002811D069
:10BFE00004280FD0022A16D0032A0BD10A7912078F
:10BFF00011D48A69521C8A61032A08D0022802D00F
:10C0000000F012FA10BD487800F04AFB10BD0D2078
:10C01000FCF7A8FC10BDFEF7BBFE10BDF42000200D
:10C02000F8B5044620481E46007915460F464007DD
:10C0300001D40820F8BD002F05D0002C03D02068C3
:10C04000002815D101E00E20F8BD1848016800292C
:10C050000ED04289018940684A43101862689042B4
:10C0600006D9002D04D0A94202D3A819884201D9CB
:10C070000720F8BD3846FFF7A5F9002811D0304653
:10C08000FFF7A0F900280CD06068FFF79BF90028A3
:10C0900007D02B463A46214604200096FEF73EF88C
:10C0A000F8BD1020F8BD0000F4200020C0280020BA
:10C0B00010B507480078002809D005480549203008
:10C0C00000F0B8F881B203488C38FDF7C9FA10BD0A
:10C0D000002000209424002070B501240B49600446
:10C0E00008600B4940108860094940398860094D53
:10C0F0006C602F20FBF7EEFFAC60074D00242F2073
:10C100002C61FBF7E7FFEC7070BD000080E100E000
:10C1100040130140001001402C210020FF2107485E
:10C12000093100224250064881690648037DC268F1
:10C13000D154017D491C017570470000002000406A
:10C1400000250040DC2700201FB5012269460A7047
:10C1500008720448C16801910021C17406C868468C
:10C1600090471FBDDC27002010B50448012241780C
:10C17000514041700248FDF78AFA10BD00200020AE
:10C180000824002070B5154864250124456051211C
:10C190008460016004730146114800F03FF80F48C5
:10C1A0008C2110300160FF212D3141600A21816016
:10C1B0000026067301460A48083000F02FF80748A9
:10C1C000FF2120300560F53184604160067301462F
:10C1D0000348103000F022F870BD000074240020E5
:10C1E0001020002010B503680A6889689C1A8C42E8
:10C1F00002D9591A016010BD01210260017110BD00
:10C2000010B54B68026889689C1A8C4202D9511893
:10C21000016010BD00210360017110BD0A7B002A7E
:10C2200003D049680160002102E009680160012132
:10C230000171704710B5044600790028204602D0ED
:10C24000FFF7DEFF01E0FFF7CDFF206810BDFFB56F
:10C250000746806A81B0144600283DD00025384644
:10C260002030009033E00C20B96A68430E18B08883
:10C27000801CFE2802D90C2005B0F0BD228802994E
:10C28000401C885420881622401C80B220800299CD
:10C290000A542088401C80B22080029941183088BE
:10C2A00000F066FB2188401880B22080B288002A06
:10C2B0000AD0B16800290FD0029BC018FBF760FFBD
:10C2C0002088B188401820806D1C0098EDB2007B5A
:10C2D000A842C8D80020CFE70720CDE730B59DB0F1
:10C2E000032118A80172142110A8FBF770FF002485
:10C2F000012510A8109405711AA81290601C01075E
:10C30000090F103110A8017344738473601C010776
:10C31000090F103110A8C1730020014610A8017444
:10C3200001462D48FDF746F9002803D000221146AA
:10C33000FCF7F0FA142115A8FBF749FF012001468C
:10C34000103118A8417001200146103118A88170E1
:10C350000020014618A8C17001200146103118A81C
:10C36000017110A815940576642118A8179401701E
:10C37000194815A91838FCF725FF002803D000221A
:10C380001146FCF7C7FA15481B9013481BA95030FB
:10C39000FDF780F9002803D000221146FCF7BAFA15
:10C3A00040216846FBF713FF0DA16846FDF7D3F95E
:10C3B00001200146103108A801770020014608A895
:10C3C00041776846FCF7F4FF002803D000221146AD
:10C3D000FCF7A0FA1DB030BD0824002049BB0100C5
:10C3E0004E6F7264696353656D69636F6E647563E4
:10C3F000746F720010B50020FDF786FB002803D093
:10C4000000221146FCF786FAFDF7BCFA002803D09B
:10C4100000221146FCF77EFA3CDF002803D0002200
:10C420001146FCF777FA10BD10B50F4900280870C7
:10C4300009D0012811D0022812D0032802D148695E
:10C44000FEF7E6FC10BD00208861C861074840780F
:10C450000028F7D0FDF736FE10BD00F0D9F810BD6A
:10C4600000F038F810BD0000F4200020F427002070
:10C4700010B508461146C046C04610BD002803D07E
:10C480000249C860002070470E2070474C210020F0
:10C4900070B5002901D08C0701D0072070BD064C73
:10C4A0000125A16062800549636010DF0028F5D195
:10C4B000257016202EDF70BD4C21002071C40100B4
:10C4C000002803D002490861002070470E20704701
:10C4D0004C210020F8B5164C14226068400840003A
:10C4E00060601448017851430E183769FFF74CFC1F
:10C4F00001463846FBF71AFE05466061FFF744FC2B
:10C500000146F0887F1EC019FBF710FE022285420B
:10C51000606801D1104300E090436060E168104022
:10C52000084303D0002000F0BBF8F8BD0220FAE772
:10C53000F4200020F427002010B502484069FEF7DF
:10C5400067FC10BDF420002010B5FFF70BFC441E63
:10C55000FFF71AFC4443FFF717FC04494A69521ECF
:10C560005043CA682146FEF758FC10BDF420002055
:10C57000F8B510481422017851430C182569FFF7CB
:10C5800003FC0146E088228980184019FBF7CEFDA4
:10C590000F46FFF7E7FB461EFFF7F6FB4643E08832
:10C5A0002289F1198018044A40191269FEF735FCF6
:10C5B000F8BD0000F4270020F420002070B5FFF73C
:10C5C000E3FB0546FFF7CEFB441EFFF7DDFB6043B0
:10C5D0002946FBF7ABFDFEF71BFC70BD70B5FFF7FE
:10C5E000D3FB8608FFF7D0FB074949694843044657
:10C5F000FFF7B8FB451EFFF7C7FB684332462146ED
:10C60000FEF70BFC70BD0000F420002000207047F6
:10C6100070B514481422017851430C18241DFFF7FB
:10C62000B3FB6188104E884211D2FFF7ADFB6188E1
:10C630000D1AFFF7A9FB8208A188E068401821695C
:10C6400040194919FEF7E9FBFFF79EFB07E0A288B6
:10C65000E06880188A082169FEF7DFFB6088F061D6
:10C6600070BD0000F4270020F420002010B505481C
:10C670000079000703D4012000F012F810BD00F08B
:10C6800003F810BDF420002010B5044808224168CA
:10C6900091434160407800F003F810BDF420002081
:10C6A000024948700249800008580047F4200020E1
:10C6B000D8CB010010B50446FFF78CFC2046FCF7F0
:10C6C00017FC10BD70B50C00054604D100221146C0
:10C6D0001046FCF71FF9002D04D100221146104628
:10C6E000FCF718F9207828702088FF2109020840FB
:10C6F000000A6870206809020840000CA8702068D1
:10C70000000EE87020792871207A68712089000A6B
:10C71000A871A068000CE87170BD000010B5054854
:10C720000079000702D4FDF7BBFC10BDFFF7ACFF9A
:10C7300010BD0000F4200020FEB51F4C0025276925
:10C74000E06802906846FEF7F3FA0190FEF7C8FE33
:10C7500006460198002822D000230098E16817E0DF
:10C760000E680A46864202D9301A086012E0801B21
:10C77000F31800261660D668D169B446002E07D09B
:10C78000FE183602360A566066469660D561154632
:10C790000029E5D12846E160FEF700FF06E02846C3
:10C7A000FEF7FCFE002801D1002E02D00298FDF712
:10C7B000F9FC00202071FEBD2C210020012002493F
:10C7C000000508607047000000E200E010B50E4B65
:10C7D000D968002906D002680C68A24204D8A21ABF
:10C7E0000A60C161D86010BD0B4604E00B46C96900
:10C7F000121B002904D00C689442F7D3A41A0C60D1
:10C800000260C161D86110BD2C210020F8B51E4D19
:10C81000EC68002C36D01D48002740682969401A72
:10C820000602360A2068B0421AD8361AC7192246BC
:10C83000107CE469002811D0002010746B69002B73
:10C8400009D0916950699847002807D00022114605
:10C85000FCF760F802E0516990698847002CE1D14B
:10C860006978A878814206D1401CC0B2A87002281D
:10C8700001D10020A87004490006800D18310F5026
:10C88000FFF79CFFF8BD00002C210020001501409F
:10C8900010B500231D4A05211846FCF789F8002829
:10C8A00003D000221146FCF735F8194A0121194836
:10C8B000FCF768F8002803D000221146FCF72AF89C
:10C8C0001448154A0121001DFCF75CF8002803D02C
:10C8D00000221146FCF71EF80E48104A01210830CC
:10C8E000FCF750F8002803D000221146FCF712F89C
:10C8F00008480B4A01210C30FCF744F8002803D00B
:10C9000000221146FCF706F810BD0000E0210020CF
:10C91000AD8C01005CCB010009B10100B1C0010088
:10C9200069C10100FF2107481D310022425006481D
:10C93000028A8168895C028A521C02820348C161B2
:10C940007047000000200040DC2700200025004048
:10C950001FB500216A461170107204488268019266
:10C96000817406C8684690471FBD0000DC27002080
:10C970000870000A487002207047000001218140C1
:10C98000024842688A43426070470000BC20002091
:10C9900038B51549154A488890420FD04A78144C4A
:10C9A000521CD2B24A70237B934208D3091D75DF13
:10C9B000002803D0A169002900D0884738BD002590
:10C9C0004D70217C002907D03B2176DF002803D061
:10C9D000A169002900D0884761690029EED0684626
:10C9E0000570884738BD00005C200020FFFF000074
:10C9F0002425002012494868C005C00D19D0103800
:10CA000040B2002807DA0207120F083A9208920093
:10CA10005118C96904E081080A4A8900891809681F
:10CA20008007C00EC1400806800F012803D00328EC
:10CA300003D002207047002070470120704700009B
:10CA400000ED00E000E400E042788378521CD2B2AE
:10CA5000934200D100220378934201D10020704715
:10CA60000A70416840781822504308187047FFB593
:10CA700083B016460C9D0D9C1F4602220095019422
:10CA8000039800F00CF8002807D13B4610223146ED
:10CA900000950194039800F002F807B0F0BDFFB5CF
:10CAA00083B0074600200C9C8646268805463AE05F
:10CAB0007868A90042181188684681805188C18031
:10CAC0000022694601A865DF002839D1684601784F
:10CAD0000598814226D17046002801D0002200E04E
:10CAE00002222088891842180D998A4227D8714657
:10CAF00000290AD1401C80B22080069A0499115462
:10CB00002088401C208001208646218806980A182B
:10CB1000694601A865DF002812D169462088097896
:10CB2000401820806D1C3888A842C1DC704600285F
:10CB30000AD02088801B401E80B2FF2802D90C201A
:10CB400007B0F0BD069988550020F9E70179002962
:10CB500002D1007B002800D0012070476021002016
:10CB600080210020A0210020C0210020A42400203A
:10CB7000C4240020E4240020100000001100000064
:10CB80001000030099990100110003009999010018
:10CB900004250020FFFFFFFF67B8010079AF010007
:10CBA00095AE010035B0010063B8010049AF010046
:10CBB00091AE01002DB001005FB8010099AE0100F7
:10CBC0008DAE010025B0010023D1BCEA5F782315AA
:10CBD000DEEF121200000000BDC50100DDC501003E
:10CBE00039C5010071C5010049C501006DC60100CC
:10CBF000F1A301009DA301001DC7010091B0010038
:10CC0000CC2800200300000028CC010000200020D8
:10CC1000600100003082010048CC0100602100204A
:10CC2000900F00008285010042010620FFFF2315BE
:10CC3000010C270D1801000F1801000A18010382CA
:08CC400024F40383FFFF000050
:04000005000180C1B5
:00000001FF
